{
  "_format": "hh-sol-artifact-1",
  "contractName": "SingleSwapToken",
  "sourceName": "contracts/SwapToken.sol",
  "abi": [
    {
      "inputs": [],
      "name": "poolFee",
      "outputs": [
        {
          "internalType": "uint24",
          "name": "",
          "type": "uint24"
        }
      ],
      "stateMutability": "view",
      "type": "function"
    },
    {
      "inputs": [
        {
          "internalType": "address",
          "name": "token1",
          "type": "address"
        },
        {
          "internalType": "address",
          "name": "token2",
          "type": "address"
        },
        {
          "internalType": "uint256",
          "name": "amountIn",
          "type": "uint256"
        }
      ],
      "name": "swapExactInputSingle",
      "outputs": [
        {
          "internalType": "uint256",
          "name": "amountOut",
          "type": "uint256"
        }
      ],
      "stateMutability": "nonpayable",
      "type": "function"
    },
    {
      "inputs": [
        {
          "internalType": "address",
          "name": "token1",
          "type": "address"
        },
        {
          "internalType": "address",
          "name": "token2",
          "type": "address"
        },
        {
          "internalType": "uint256",
          "name": "amountOut",
          "type": "uint256"
        },
        {
          "internalType": "uint256",
          "name": "amountInMaximum",
          "type": "uint256"
        }
      ],
      "name": "swapExactOutputSingle",
      "outputs": [
        {
          "internalType": "uint256",
          "name": "amountIn",
          "type": "uint256"
        }
      ],
      "stateMutability": "nonpayable",
      "type": "function"
    },
    {
      "inputs": [],
      "name": "swapRouter",
      "outputs": [
        {
          "internalType": "contract ISwapRouter",
          "name": "",
          "type": "address"
        }
      ],
      "stateMutability": "view",
      "type": "function"
    }
  ],
  "bytecode": "0x608060405234801561001057600080fd5b5061095c806100206000396000f3fe608060405234801561001057600080fd5b506004361061004c5760003560e01c8063089fe6aa14610051578063bc96faa91461006f578063c31c9c071461008f578063ceb92012146100a4575b600080fd5b6100596100b7565b604051610066919061090d565b60405180910390f35b61008261007d366004610827565b6100bd565b604051610066919061091d565b610097610212565b60405161006691906108e4565b6100826100b23660046107ec565b61022a565b610bb881565b60006100cb85333085610348565b6100ea8573e592427a0aece92de3edee1f18e0157c05861564846104d3565b60408051610100810182526001600160a01b03808816825286166020820152610bb88183015233606082015242608082015260a0810185905260c08101849052600060e082015290517fdb3e219800000000000000000000000000000000000000000000000000000000815273e592427a0aece92de3edee1f18e0157c058615649063db3e2198906101809084906004016108f8565b602060405180830381600087803b15801561019a57600080fd5b505af11580156101ae573d6000803e3d6000fd5b505050506040513d601f19601f820116820180604052508101906101d29190610868565b915082821015610209576101fc8673e592427a0aece92de3edee1f18e0157c0586156460006104d3565b6102098633848603610655565b50949350505050565b73e592427a0aece92de3edee1f18e0157c0586156481565b600061023884333085610348565b6102578473e592427a0aece92de3edee1f18e0157c05861564846104d3565b60408051610100810182526001600160a01b03808716825285166020820152610bb88183015233606082015242608082015260a08101849052600060c0820181905260e082015290517f414bf38900000000000000000000000000000000000000000000000000000000815273e592427a0aece92de3edee1f18e0157c058615649063414bf389906102ed9084906004016108f8565b602060405180830381600087803b15801561030757600080fd5b505af115801561031b573d6000803e3d6000fd5b505050506040513d601f19601f8201168201806040525081019061033f9190610868565b95945050505050565b604080516001600160a01b0385811660248301528481166044830152606480830185905283518084039091018152608490920183526020820180516001600160e01b03167f23b872dd00000000000000000000000000000000000000000000000000000000178152925182516000948594938a169392918291908083835b602083106103e55780518252601f1990920191602091820191016103c6565b6001836020036101000a0380198251168184511680821785525050505050509050019150506000604051808303816000865af19150503d8060008114610447576040519150601f19603f3d011682016040523d82523d6000602084013e61044c565b606091505b509150915081801561047a57508051158061047a575080806020019051602081101561047757600080fd5b50515b6104cb576040805162461bcd60e51b815260206004820152600360248201527f5354460000000000000000000000000000000000000000000000000000000000604482015290519081900360640190fd5b505050505050565b604080516001600160a01b038481166024830152604480830185905283518084039091018152606490920183526020820180516001600160e01b03167f095ea7b3000000000000000000000000000000000000000000000000000000001781529251825160009485949389169392918291908083835b602083106105685780518252601f199092019160209182019101610549565b6001836020036101000a0380198251168184511680821785525050505050509050019150506000604051808303816000865af19150503d80600081146105ca576040519150601f19603f3d011682016040523d82523d6000602084013e6105cf565b606091505b50915091508180156105fd5750805115806105fd57508080602001905160208110156105fa57600080fd5b50515b61064e576040805162461bcd60e51b815260206004820152600260248201527f5341000000000000000000000000000000000000000000000000000000000000604482015290519081900360640190fd5b5050505050565b604080516001600160a01b038481166024830152604480830185905283518084039091018152606490920183526020820180516001600160e01b03167fa9059cbb000000000000000000000000000000000000000000000000000000001781529251825160009485949389169392918291908083835b602083106106ea5780518252601f1990920191602091820191016106cb565b6001836020036101000a0380198251168184511680821785525050505050509050019150506000604051808303816000865af19150503d806000811461074c576040519150601f19603f3d011682016040523d82523d6000602084013e610751565b606091505b509150915081801561077f57508051158061077f575080806020019051602081101561077c57600080fd5b50515b61064e576040805162461bcd60e51b815260206004820152600260248201527f5354000000000000000000000000000000000000000000000000000000000000604482015290519081900360640190fd5b80356001600160a01b03811681146107e757600080fd5b919050565b600080600060608486031215610800578283fd5b610809846107d0565b9250610817602085016107d0565b9150604084013590509250925092565b6000806000806080858703121561083c578081fd5b610845856107d0565b9350610853602086016107d0565b93969395505050506040820135916060013590565b600060208284031215610879578081fd5b5051919050565b6001600160a01b0380825116835280602083015116602084015262ffffff60408301511660408401528060608301511660608401526080820151608084015260a082015160a084015260c082015160c08401528060e08301511660e0840152505050565b6001600160a01b0391909116815260200190565b61010081016109078284610880565b92915050565b62ffffff91909116815260200190565b9081526020019056fea26469706673582212205dff214754b69130223fab7073251dbe2b673d8053125e8330ec79702d36e14f64736f6c63430007060033",
  "linkReferences": {},
  "deployedLinkReferences": {}
}