{
  "_format": "hh-sol-artifact-1",
  "contractName": "SingleSwapToken",
  "sourceName": "contracts/SwapToken.sol",
  "abi": [
    {
      "inputs": [],
      "name": "DAI",
      "outputs": [
        {
          "internalType": "address",
          "name": "",
          "type": "address"
        }
      ],
      "stateMutability": "view",
      "type": "function"
    },
    {
      "inputs": [],
      "name": "USDC",
      "outputs": [
        {
          "internalType": "address",
          "name": "",
          "type": "address"
        }
      ],
      "stateMutability": "view",
      "type": "function"
    },
    {
      "inputs": [],
      "name": "WETH9",
      "outputs": [
        {
          "internalType": "address",
          "name": "",
          "type": "address"
        }
      ],
      "stateMutability": "view",
      "type": "function"
    },
    {
      "inputs": [],
      "name": "poolFee",
      "outputs": [
        {
          "internalType": "uint24",
          "name": "",
          "type": "uint24"
        }
      ],
      "stateMutability": "view",
      "type": "function"
    },
    {
      "inputs": [
        {
          "internalType": "uint256",
          "name": "amountIn",
          "type": "uint256"
        }
      ],
      "name": "swapExactInputSingle",
      "outputs": [
        {
          "internalType": "uint256",
          "name": "amountOut",
          "type": "uint256"
        }
      ],
      "stateMutability": "nonpayable",
      "type": "function"
    },
    {
      "inputs": [
        {
          "internalType": "uint256",
          "name": "amountOut",
          "type": "uint256"
        },
        {
          "internalType": "uint256",
          "name": "amountInMaximum",
          "type": "uint256"
        }
      ],
      "name": "swapExactOutputSingle",
      "outputs": [
        {
          "internalType": "uint256",
          "name": "amountIn",
          "type": "uint256"
        }
      ],
      "stateMutability": "nonpayable",
      "type": "function"
    },
    {
      "inputs": [],
      "name": "swapRouter",
      "outputs": [
        {
          "internalType": "contract ISwapRouter",
          "name": "",
          "type": "address"
        }
      ],
      "stateMutability": "view",
      "type": "function"
    }
  ],
  "bytecode": "0x608060405234801561001057600080fd5b506110c5806100206000396000f3fe608060405234801561001057600080fd5b506004361061007d5760003560e01c806389a302711161005b57806389a30271146100ee578063c31c9c071461010c578063c4b69a181461012a578063e0bab4c41461015a5761007d565b8063089fe6aa146100825780634aa4a4fc146100a057806373bd43ad146100be575b600080fd5b61008a610178565b60405161009791906109cd565b60405180910390f35b6100a861017e565b6040516100b59190610a29565b60405180910390f35b6100d860048036038101906100d39190610a7f565b610196565b6040516100e59190610abb565b60405180910390f35b6100f661034a565b6040516101039190610a29565b60405180910390f35b610114610362565b6040516101219190610b35565b60405180910390f35b610144600480360381019061013f9190610b50565b61037a565b6040516101519190610abb565b60405180910390f35b610162610595565b60405161016f9190610a29565b60405180910390f35b610bb881565b73c02aaa39b223fe8d0a0e5c4f27ead9083c756cc281565b60006101b873c02aaa39b223fe8d0a0e5c4f27ead9083c756cc23330856105ad565b6101eb73c02aaa39b223fe8d0a0e5c4f27ead9083c756cc273e592427a0aece92de3edee1f18e0157c0586156484610705565b600060405180610100016040528073c02aaa39b223fe8d0a0e5c4f27ead9083c756cc273ffffffffffffffffffffffffffffffffffffffff168152602001736b175474e89094c44da98b954eedeac495271d0f73ffffffffffffffffffffffffffffffffffffffff168152602001610bb862ffffff1681526020013373ffffffffffffffffffffffffffffffffffffffff16815260200142815260200184815260200160008152602001600073ffffffffffffffffffffffffffffffffffffffff16815250905073e592427a0aece92de3edee1f18e0157c0586156473ffffffffffffffffffffffffffffffffffffffff1663414bf389826040518263ffffffff1660e01b81526004016102ff9190610c6e565b6020604051808303816000875af115801561031e573d6000803e3d6000fd5b505050506040513d601f19601f820116820180604052508101906103429190610c9f565b915050919050565b73a0b86991c6218b36c1d19d4a2e9eb0ce3606eb4881565b73e592427a0aece92de3edee1f18e0157c0586156481565b600061039c73c02aaa39b223fe8d0a0e5c4f27ead9083c756cc23330856105ad565b6103cf73c02aaa39b223fe8d0a0e5c4f27ead9083c756cc273e592427a0aece92de3edee1f18e0157c0586156484610705565b600060405180610100016040528073c02aaa39b223fe8d0a0e5c4f27ead9083c756cc273ffffffffffffffffffffffffffffffffffffffff168152602001736b175474e89094c44da98b954eedeac495271d0f73ffffffffffffffffffffffffffffffffffffffff168152602001610bb862ffffff1681526020013373ffffffffffffffffffffffffffffffffffffffff168152602001428152602001858152602001848152602001600073ffffffffffffffffffffffffffffffffffffffff16815250905073e592427a0aece92de3edee1f18e0157c0586156473ffffffffffffffffffffffffffffffffffffffff1663db3e2198826040518263ffffffff1660e01b81526004016104e29190610d6e565b6020604051808303816000875af1158015610501573d6000803e3d6000fd5b505050506040513d601f19601f820116820180604052508101906105259190610c9f565b91508282101561058e5761056373c02aaa39b223fe8d0a0e5c4f27ead9083c756cc273e592427a0aece92de3edee1f18e0157c058615646000610705565b61058d73c02aaa39b223fe8d0a0e5c4f27ead9083c756cc23384866105889190610db9565b61085a565b5b5092915050565b736b175474e89094c44da98b954eedeac495271d0f81565b6000808573ffffffffffffffffffffffffffffffffffffffff166323b872dd60e01b8686866040516024016105e493929190610ded565b604051602081830303815290604052907bffffffffffffffffffffffffffffffffffffffffffffffffffffffff19166020820180517bffffffffffffffffffffffffffffffffffffffffffffffffffffffff838183161783525050505060405161064e9190610e95565b6000604051808303816000865af19150503d806000811461068b576040519150601f19603f3d011682016040523d82523d6000602084013e610690565b606091505b50915091508180156106be57506000815114806106bd5750808060200190518101906106bc9190610ee4565b5b5b6106fd576040517f08c379a00000000000000000000000000000000000000000000000000000000081526004016106f490610f6e565b60405180910390fd5b505050505050565b6000808473ffffffffffffffffffffffffffffffffffffffff1663095ea7b360e01b858560405160240161073a929190610f8e565b604051602081830303815290604052907bffffffffffffffffffffffffffffffffffffffffffffffffffffffff19166020820180517bffffffffffffffffffffffffffffffffffffffffffffffffffffffff83818316178352505050506040516107a49190610e95565b6000604051808303816000865af19150503d80600081146107e1576040519150601f19603f3d011682016040523d82523d6000602084013e6107e6565b606091505b509150915081801561081457506000815114806108135750808060200190518101906108129190610ee4565b5b5b610853576040517f08c379a000000000000000000000000000000000000000000000000000000000815260040161084a90611003565b60405180910390fd5b5050505050565b6000808473ffffffffffffffffffffffffffffffffffffffff1663a9059cbb60e01b858560405160240161088f929190610f8e565b604051602081830303815290604052907bffffffffffffffffffffffffffffffffffffffffffffffffffffffff19166020820180517bffffffffffffffffffffffffffffffffffffffffffffffffffffffff83818316178352505050506040516108f99190610e95565b6000604051808303816000865af19150503d8060008114610936576040519150601f19603f3d011682016040523d82523d6000602084013e61093b565b606091505b509150915081801561096957506000815114806109685750808060200190518101906109679190610ee4565b5b5b6109a8576040517f08c379a000000000000000000000000000000000000000000000000000000000815260040161099f9061106f565b60405180910390fd5b5050505050565b600062ffffff82169050919050565b6109c7816109af565b82525050565b60006020820190506109e260008301846109be565b92915050565b600073ffffffffffffffffffffffffffffffffffffffff82169050919050565b6000610a13826109e8565b9050919050565b610a2381610a08565b82525050565b6000602082019050610a3e6000830184610a1a565b92915050565b600080fd5b6000819050919050565b610a5c81610a49565b8114610a6757600080fd5b50565b600081359050610a7981610a53565b92915050565b600060208284031215610a9557610a94610a44565b5b6000610aa384828501610a6a565b91505092915050565b610ab581610a49565b82525050565b6000602082019050610ad06000830184610aac565b92915050565b6000819050919050565b6000610afb610af6610af1846109e8565b610ad6565b6109e8565b9050919050565b6000610b0d82610ae0565b9050919050565b6000610b1f82610b02565b9050919050565b610b2f81610b14565b82525050565b6000602082019050610b4a6000830184610b26565b92915050565b60008060408385031215610b6757610b66610a44565b5b6000610b7585828601610a6a565b9250506020610b8685828601610a6a565b9150509250929050565b610b9981610a08565b82525050565b610ba8816109af565b82525050565b610bb781610a49565b82525050565b610bc6816109e8565b82525050565b61010082016000820151610be36000850182610b90565b506020820151610bf66020850182610b90565b506040820151610c096040850182610b9f565b506060820151610c1c6060850182610b90565b506080820151610c2f6080850182610bae565b5060a0820151610c4260a0850182610bae565b5060c0820151610c5560c0850182610bae565b5060e0820151610c6860e0850182610bbd565b50505050565b600061010082019050610c846000830184610bcc565b92915050565b600081519050610c9981610a53565b92915050565b600060208284031215610cb557610cb4610a44565b5b6000610cc384828501610c8a565b91505092915050565b61010082016000820151610ce36000850182610b90565b506020820151610cf66020850182610b90565b506040820151610d096040850182610b9f565b506060820151610d1c6060850182610b90565b506080820151610d2f6080850182610bae565b5060a0820151610d4260a0850182610bae565b5060c0820151610d5560c0850182610bae565b5060e0820151610d6860e0850182610bbd565b50505050565b600061010082019050610d846000830184610ccc565b92915050565b7f4e487b7100000000000000000000000000000000000000000000000000000000600052601160045260246000fd5b6000610dc482610a49565b9150610dcf83610a49565b9250828203905081811115610de757610de6610d8a565b5b92915050565b6000606082019050610e026000830186610a1a565b610e0f6020830185610a1a565b610e1c6040830184610aac565b949350505050565b600081519050919050565b600081905092915050565b60005b83811015610e58578082015181840152602081019050610e3d565b60008484015250505050565b6000610e6f82610e24565b610e798185610e2f565b9350610e89818560208601610e3a565b80840191505092915050565b6000610ea18284610e64565b915081905092915050565b60008115159050919050565b610ec181610eac565b8114610ecc57600080fd5b50565b600081519050610ede81610eb8565b92915050565b600060208284031215610efa57610ef9610a44565b5b6000610f0884828501610ecf565b91505092915050565b600082825260208201905092915050565b7f5354460000000000000000000000000000000000000000000000000000000000600082015250565b6000610f58600383610f11565b9150610f6382610f22565b602082019050919050565b60006020820190508181036000830152610f8781610f4b565b9050919050565b6000604082019050610fa36000830185610a1a565b610fb06020830184610aac565b9392505050565b7f5341000000000000000000000000000000000000000000000000000000000000600082015250565b6000610fed600283610f11565b9150610ff882610fb7565b602082019050919050565b6000602082019050818103600083015261101c81610fe0565b9050919050565b7f5354000000000000000000000000000000000000000000000000000000000000600082015250565b6000611059600283610f11565b915061106482611023565b602082019050919050565b600060208201905081810360008301526110888161104c565b905091905056fea2646970667358221220e564313772236107493232399f1bbfd0a651b354b5cd50d1f46ccdfd61935b0064736f6c63430008120033",
  "linkReferences": {},
  "deployedLinkReferences": {}
}