{
  "_format": "hh-sol-artifact-1",
  "contractName": "SingleSwapToken",
  "sourceName": "contracts/SwapToken.sol",
  "abi": [
    {
      "inputs": [
        {
          "internalType": "address",
          "name": "token1",
          "type": "address"
        },
        {
          "internalType": "address",
          "name": "token2",
          "type": "address"
        },
        {
          "internalType": "uint256",
          "name": "amountIn",
          "type": "uint256"
        }
      ],
      "name": "swapExactInputSingle",
      "outputs": [
        {
          "internalType": "uint256",
          "name": "amountOut",
          "type": "uint256"
        }
      ],
      "stateMutability": "nonpayable",
      "type": "function"
    },
    {
      "inputs": [
        {
          "internalType": "address",
          "name": "token1",
          "type": "address"
        },
        {
          "internalType": "address",
          "name": "token2",
          "type": "address"
        },
        {
          "internalType": "uint256",
          "name": "amountOut",
          "type": "uint256"
        },
        {
          "internalType": "uint256",
          "name": "amountInMaximum",
          "type": "uint256"
        }
      ],
      "name": "swapExactOutputSingle",
      "outputs": [
        {
          "internalType": "uint256",
          "name": "amountIn",
          "type": "uint256"
        }
      ],
      "stateMutability": "nonpayable",
      "type": "function"
    },
    {
      "inputs": [],
      "name": "swapRouter",
      "outputs": [
        {
          "internalType": "contract ISwapRouter",
          "name": "",
          "type": "address"
        }
      ],
      "stateMutability": "view",
      "type": "function"
    }
  ],
  "bytecode": "0x608060405234801561001057600080fd5b50610f33806100206000396000f3fe608060405234801561001057600080fd5b50600436106100415760003560e01c8063bc96faa914610046578063c31c9c0714610076578063ceb9201214610094575b600080fd5b610060600480360381019061005b9190610882565b6100c4565b60405161006d91906108f8565b60405180910390f35b61007e610269565b60405161008b9190610972565b60405180910390f35b6100ae60048036038101906100a9919061098d565b610281565b6040516100bb91906108f8565b60405180910390f35b60006100d2853330856103e7565b6100f18573e592427a0aece92de3edee1f18e0157c058615648461053f565b60006040518061010001604052808773ffffffffffffffffffffffffffffffffffffffff1681526020018673ffffffffffffffffffffffffffffffffffffffff168152602001610bb862ffffff1681526020013373ffffffffffffffffffffffffffffffffffffffff168152602001428152602001858152602001848152602001600073ffffffffffffffffffffffffffffffffffffffff16815250905073e592427a0aece92de3edee1f18e0157c0586156473ffffffffffffffffffffffffffffffffffffffff1663db3e2198826040518263ffffffff1660e01b81526004016101dc9190610acd565b6020604051808303816000875af11580156101fb573d6000803e3d6000fd5b505050506040513d601f19601f8201168201806040525081019061021f9190610afe565b915082821015610260576102498673e592427a0aece92de3edee1f18e0157c05861564600061053f565b61025f8633848661025a9190610b5a565b610694565b5b50949350505050565b73e592427a0aece92de3edee1f18e0157c0586156481565b600061028f843330856103e7565b6102ae8473e592427a0aece92de3edee1f18e0157c058615648461053f565b60006040518061010001604052808673ffffffffffffffffffffffffffffffffffffffff1681526020018573ffffffffffffffffffffffffffffffffffffffff168152602001610bb862ffffff1681526020013373ffffffffffffffffffffffffffffffffffffffff16815260200142815260200184815260200160008152602001600073ffffffffffffffffffffffffffffffffffffffff16815250905073e592427a0aece92de3edee1f18e0157c0586156473ffffffffffffffffffffffffffffffffffffffff1663414bf389826040518263ffffffff1660e01b815260040161039a9190610c30565b6020604051808303816000875af11580156103b9573d6000803e3d6000fd5b505050506040513d601f19601f820116820180604052508101906103dd9190610afe565b9150509392505050565b6000808573ffffffffffffffffffffffffffffffffffffffff166323b872dd60e01b86868660405160240161041e93929190610c5b565b604051602081830303815290604052907bffffffffffffffffffffffffffffffffffffffffffffffffffffffff19166020820180517bffffffffffffffffffffffffffffffffffffffffffffffffffffffff83818316178352505050506040516104889190610d03565b6000604051808303816000865af19150503d80600081146104c5576040519150601f19603f3d011682016040523d82523d6000602084013e6104ca565b606091505b50915091508180156104f857506000815114806104f75750808060200190518101906104f69190610d52565b5b5b610537576040517f08c379a000000000000000000000000000000000000000000000000000000000815260040161052e90610ddc565b60405180910390fd5b505050505050565b6000808473ffffffffffffffffffffffffffffffffffffffff1663095ea7b360e01b8585604051602401610574929190610dfc565b604051602081830303815290604052907bffffffffffffffffffffffffffffffffffffffffffffffffffffffff19166020820180517bffffffffffffffffffffffffffffffffffffffffffffffffffffffff83818316178352505050506040516105de9190610d03565b6000604051808303816000865af19150503d806000811461061b576040519150601f19603f3d011682016040523d82523d6000602084013e610620565b606091505b509150915081801561064e575060008151148061064d57508080602001905181019061064c9190610d52565b5b5b61068d576040517f08c379a000000000000000000000000000000000000000000000000000000000815260040161068490610e71565b60405180910390fd5b5050505050565b6000808473ffffffffffffffffffffffffffffffffffffffff1663a9059cbb60e01b85856040516024016106c9929190610dfc565b604051602081830303815290604052907bffffffffffffffffffffffffffffffffffffffffffffffffffffffff19166020820180517bffffffffffffffffffffffffffffffffffffffffffffffffffffffff83818316178352505050506040516107339190610d03565b6000604051808303816000865af19150503d8060008114610770576040519150601f19603f3d011682016040523d82523d6000602084013e610775565b606091505b50915091508180156107a357506000815114806107a25750808060200190518101906107a19190610d52565b5b5b6107e2576040517f08c379a00000000000000000000000000000000000000000000000000000000081526004016107d990610edd565b60405180910390fd5b5050505050565b600080fd5b600073ffffffffffffffffffffffffffffffffffffffff82169050919050565b6000610819826107ee565b9050919050565b6108298161080e565b811461083457600080fd5b50565b60008135905061084681610820565b92915050565b6000819050919050565b61085f8161084c565b811461086a57600080fd5b50565b60008135905061087c81610856565b92915050565b6000806000806080858703121561089c5761089b6107e9565b5b60006108aa87828801610837565b94505060206108bb87828801610837565b93505060406108cc8782880161086d565b92505060606108dd8782880161086d565b91505092959194509250565b6108f28161084c565b82525050565b600060208201905061090d60008301846108e9565b92915050565b6000819050919050565b600061093861093361092e846107ee565b610913565b6107ee565b9050919050565b600061094a8261091d565b9050919050565b600061095c8261093f565b9050919050565b61096c81610951565b82525050565b60006020820190506109876000830184610963565b92915050565b6000806000606084860312156109a6576109a56107e9565b5b60006109b486828701610837565b93505060206109c586828701610837565b92505060406109d68682870161086d565b9150509250925092565b6109e98161080e565b82525050565b600062ffffff82169050919050565b610a07816109ef565b82525050565b610a168161084c565b82525050565b610a25816107ee565b82525050565b61010082016000820151610a4260008501826109e0565b506020820151610a5560208501826109e0565b506040820151610a6860408501826109fe565b506060820151610a7b60608501826109e0565b506080820151610a8e6080850182610a0d565b5060a0820151610aa160a0850182610a0d565b5060c0820151610ab460c0850182610a0d565b5060e0820151610ac760e0850182610a1c565b50505050565b600061010082019050610ae36000830184610a2b565b92915050565b600081519050610af881610856565b92915050565b600060208284031215610b1457610b136107e9565b5b6000610b2284828501610ae9565b91505092915050565b7f4e487b7100000000000000000000000000000000000000000000000000000000600052601160045260246000fd5b6000610b658261084c565b9150610b708361084c565b9250828203905081811115610b8857610b87610b2b565b5b92915050565b61010082016000820151610ba560008501826109e0565b506020820151610bb860208501826109e0565b506040820151610bcb60408501826109fe565b506060820151610bde60608501826109e0565b506080820151610bf16080850182610a0d565b5060a0820151610c0460a0850182610a0d565b5060c0820151610c1760c0850182610a0d565b5060e0820151610c2a60e0850182610a1c565b50505050565b600061010082019050610c466000830184610b8e565b92915050565b610c558161080e565b82525050565b6000606082019050610c706000830186610c4c565b610c7d6020830185610c4c565b610c8a60408301846108e9565b949350505050565b600081519050919050565b600081905092915050565b60005b83811015610cc6578082015181840152602081019050610cab565b60008484015250505050565b6000610cdd82610c92565b610ce78185610c9d565b9350610cf7818560208601610ca8565b80840191505092915050565b6000610d0f8284610cd2565b915081905092915050565b60008115159050919050565b610d2f81610d1a565b8114610d3a57600080fd5b50565b600081519050610d4c81610d26565b92915050565b600060208284031215610d6857610d676107e9565b5b6000610d7684828501610d3d565b91505092915050565b600082825260208201905092915050565b7f5354460000000000000000000000000000000000000000000000000000000000600082015250565b6000610dc6600383610d7f565b9150610dd182610d90565b602082019050919050565b60006020820190508181036000830152610df581610db9565b9050919050565b6000604082019050610e116000830185610c4c565b610e1e60208301846108e9565b9392505050565b7f5341000000000000000000000000000000000000000000000000000000000000600082015250565b6000610e5b600283610d7f565b9150610e6682610e25565b602082019050919050565b60006020820190508181036000830152610e8a81610e4e565b9050919050565b7f5354000000000000000000000000000000000000000000000000000000000000600082015250565b6000610ec7600283610d7f565b9150610ed282610e91565b602082019050919050565b60006020820190508181036000830152610ef681610eba565b905091905056fea264697066735822122038c77d82ecd31c09348d7dd7b7dbff54476c044b26375a980992fef7cefb9b7064736f6c63430008120033",
  "linkReferences": {},
  "deployedLinkReferences": {}
}