{
  "_format": "hh-sol-artifact-1",
  "contractName": "SwapMultiHop",
  "sourceName": "contracts/SwapMultiHop.sol",
  "abi": [
    {
      "inputs": [
        {
          "internalType": "contract ISwapRouter",
          "name": "_swapRouter",
          "type": "address"
        }
      ],
      "stateMutability": "nonpayable",
      "type": "constructor"
    },
    {
      "inputs": [],
      "name": "DAI",
      "outputs": [
        {
          "internalType": "address",
          "name": "",
          "type": "address"
        }
      ],
      "stateMutability": "view",
      "type": "function"
    },
    {
      "inputs": [],
      "name": "USDC",
      "outputs": [
        {
          "internalType": "address",
          "name": "",
          "type": "address"
        }
      ],
      "stateMutability": "view",
      "type": "function"
    },
    {
      "inputs": [],
      "name": "WETH9",
      "outputs": [
        {
          "internalType": "address",
          "name": "",
          "type": "address"
        }
      ],
      "stateMutability": "view",
      "type": "function"
    },
    {
      "inputs": [],
      "name": "poolFee",
      "outputs": [
        {
          "internalType": "uint24",
          "name": "",
          "type": "uint24"
        }
      ],
      "stateMutability": "view",
      "type": "function"
    },
    {
      "inputs": [
        {
          "internalType": "uint256",
          "name": "amountIn",
          "type": "uint256"
        }
      ],
      "name": "swapExactInputMultihop",
      "outputs": [
        {
          "internalType": "uint256",
          "name": "amountOut",
          "type": "uint256"
        }
      ],
      "stateMutability": "nonpayable",
      "type": "function"
    },
    {
      "inputs": [
        {
          "internalType": "uint256",
          "name": "amountOut",
          "type": "uint256"
        },
        {
          "internalType": "uint256",
          "name": "amountInMaximum",
          "type": "uint256"
        }
      ],
      "name": "swapExactOutputMultihop",
      "outputs": [
        {
          "internalType": "uint256",
          "name": "amountIn",
          "type": "uint256"
        }
      ],
      "stateMutability": "nonpayable",
      "type": "function"
    },
    {
      "inputs": [],
      "name": "swapRouter",
      "outputs": [
        {
          "internalType": "contract ISwapRouter",
          "name": "",
          "type": "address"
        }
      ],
      "stateMutability": "view",
      "type": "function"
    }
  ],
  "bytecode": "0x60a06040523480156200001157600080fd5b5060405162001140380380620011408339818101604052810190620000379190620000f0565b8073ffffffffffffffffffffffffffffffffffffffff1660808173ffffffffffffffffffffffffffffffffffffffff16815250505062000122565b600080fd5b600073ffffffffffffffffffffffffffffffffffffffff82169050919050565b6000620000a48262000077565b9050919050565b6000620000b88262000097565b9050919050565b620000ca81620000ab565b8114620000d657600080fd5b50565b600081519050620000ea81620000bf565b92915050565b60006020828403121562000109576200010862000072565b5b60006200011984828501620000d9565b91505092915050565b608051610fdf62000161600039600081816101ba0152818161028901528181610347015281816103d20152818161044801526105180152610fdf6000f3fe608060405234801561001057600080fd5b506004361061007d5760003560e01c806389a302711161005b57806389a30271146100ee578063c31c9c071461010c578063e0bab4c41461012a578063edd83557146101485761007d565b8063089fe6aa146100825780633b85cf6a146100a05780634aa4a4fc146100d0575b600080fd5b61008a610178565b6040516100979190610885565b60405180910390f35b6100ba60048036038101906100b591906108db565b61017e565b6040516100c7919061092a565b60405180910390f35b6100d86103a0565b6040516100e59190610986565b60405180910390f35b6100f66103b8565b6040516101039190610986565b60405180910390f35b6101146103d0565b6040516101219190610a00565b60405180910390f35b6101326103f4565b60405161013f9190610986565b60405180910390f35b610162600480360381019061015d9190610a1b565b61040c565b60405161016f919061092a565b60405180910390f35b610bb881565b60006101a0736b175474e89094c44da98b954eedeac495271d0f3330856105ba565b6101df736b175474e89094c44da98b954eedeac495271d0f7f000000000000000000000000000000000000000000000000000000000000000084610712565b60006040518060a0016040528073c02aaa39b223fe8d0a0e5c4f27ead9083c756cc2610bb873a0b86991c6218b36c1d19d4a2e9eb0ce3606eb48610bb8736b175474e89094c44da98b954eedeac495271d0f604051602001610245959493929190610ac6565b60405160208183030381529060405281526020013373ffffffffffffffffffffffffffffffffffffffff1681526020014281526020018581526020018481525090507f000000000000000000000000000000000000000000000000000000000000000073ffffffffffffffffffffffffffffffffffffffff1663f28c0498826040518263ffffffff1660e01b81526004016102e09190610c49565b6020604051808303816000875af11580156102ff573d6000803e3d6000fd5b505050506040513d601f19601f820116820180604052508101906103239190610c80565b9150828210156103995761036d736b175474e89094c44da98b954eedeac495271d0f7f00000000000000000000000000000000000000000000000000000000000000006000610712565b610398736b175474e89094c44da98b954eedeac495271d0f303385876103939190610cdc565b6105ba565b5b5092915050565b73c02aaa39b223fe8d0a0e5c4f27ead9083c756cc281565b73a0b86991c6218b36c1d19d4a2e9eb0ce3606eb4881565b7f000000000000000000000000000000000000000000000000000000000000000081565b736b175474e89094c44da98b954eedeac495271d0f81565b600061042e736b175474e89094c44da98b954eedeac495271d0f3330856105ba565b61046d736b175474e89094c44da98b954eedeac495271d0f7f000000000000000000000000000000000000000000000000000000000000000084610712565b60006040518060a00160405280736b175474e89094c44da98b954eedeac495271d0f610bb873a0b86991c6218b36c1d19d4a2e9eb0ce3606eb48610bb873c02aaa39b223fe8d0a0e5c4f27ead9083c756cc26040516020016104d3959493929190610ac6565b60405160208183030381529060405281526020013373ffffffffffffffffffffffffffffffffffffffff168152602001428152602001848152602001600081525090507f000000000000000000000000000000000000000000000000000000000000000073ffffffffffffffffffffffffffffffffffffffff1663c04b8d59826040518263ffffffff1660e01b815260040161056f9190610d86565b6020604051808303816000875af115801561058e573d6000803e3d6000fd5b505050506040513d601f19601f820116820180604052508101906105b29190610c80565b915050919050565b6000808573ffffffffffffffffffffffffffffffffffffffff166323b872dd60e01b8686866040516024016105f193929190610da8565b604051602081830303815290604052907bffffffffffffffffffffffffffffffffffffffffffffffffffffffff19166020820180517bffffffffffffffffffffffffffffffffffffffffffffffffffffffff838183161783525050505060405161065b9190610e1b565b6000604051808303816000865af19150503d8060008114610698576040519150601f19603f3d011682016040523d82523d6000602084013e61069d565b606091505b50915091508180156106cb57506000815114806106ca5750808060200190518101906106c99190610e6a565b5b5b61070a576040517f08c379a000000000000000000000000000000000000000000000000000000000815260040161070190610ef4565b60405180910390fd5b505050505050565b6000808473ffffffffffffffffffffffffffffffffffffffff1663095ea7b360e01b8585604051602401610747929190610f14565b604051602081830303815290604052907bffffffffffffffffffffffffffffffffffffffffffffffffffffffff19166020820180517bffffffffffffffffffffffffffffffffffffffffffffffffffffffff83818316178352505050506040516107b19190610e1b565b6000604051808303816000865af19150503d80600081146107ee576040519150601f19603f3d011682016040523d82523d6000602084013e6107f3565b606091505b5091509150818015610821575060008151148061082057508080602001905181019061081f9190610e6a565b5b5b610860576040517f08c379a000000000000000000000000000000000000000000000000000000000815260040161085790610f89565b60405180910390fd5b5050505050565b600062ffffff82169050919050565b61087f81610867565b82525050565b600060208201905061089a6000830184610876565b92915050565b600080fd5b6000819050919050565b6108b8816108a5565b81146108c357600080fd5b50565b6000813590506108d5816108af565b92915050565b600080604083850312156108f2576108f16108a0565b5b6000610900858286016108c6565b9250506020610911858286016108c6565b9150509250929050565b610924816108a5565b82525050565b600060208201905061093f600083018461091b565b92915050565b600073ffffffffffffffffffffffffffffffffffffffff82169050919050565b600061097082610945565b9050919050565b61098081610965565b82525050565b600060208201905061099b6000830184610977565b92915050565b6000819050919050565b60006109c66109c16109bc84610945565b6109a1565b610945565b9050919050565b60006109d8826109ab565b9050919050565b60006109ea826109cd565b9050919050565b6109fa816109df565b82525050565b6000602082019050610a1560008301846109f1565b92915050565b600060208284031215610a3157610a306108a0565b5b6000610a3f848285016108c6565b91505092915050565b60008160601b9050919050565b6000610a6082610a48565b9050919050565b6000610a7282610a55565b9050919050565b610a8a610a8582610965565b610a67565b82525050565b60008160e81b9050919050565b6000610aa882610a90565b9050919050565b610ac0610abb82610867565b610a9d565b82525050565b6000610ad28288610a79565b601482019150610ae28287610aaf565b600382019150610af28286610a79565b601482019150610b028285610aaf565b600382019150610b128284610a79565b6014820191508190509695505050505050565b600081519050919050565b600082825260208201905092915050565b60005b83811015610b5f578082015181840152602081019050610b44565b60008484015250505050565b6000601f19601f8301169050919050565b6000610b8782610b25565b610b918185610b30565b9350610ba1818560208601610b41565b610baa81610b6b565b840191505092915050565b610bbe81610965565b82525050565b610bcd816108a5565b82525050565b600060a0830160008301518482036000860152610bf08282610b7c565b9150506020830151610c056020860182610bb5565b506040830151610c186040860182610bc4565b506060830151610c2b6060860182610bc4565b506080830151610c3e6080860182610bc4565b508091505092915050565b60006020820190508181036000830152610c638184610bd3565b905092915050565b600081519050610c7a816108af565b92915050565b600060208284031215610c9657610c956108a0565b5b6000610ca484828501610c6b565b91505092915050565b7f4e487b7100000000000000000000000000000000000000000000000000000000600052601160045260246000fd5b6000610ce7826108a5565b9150610cf2836108a5565b9250828203905081811115610d0a57610d09610cad565b5b92915050565b600060a0830160008301518482036000860152610d2d8282610b7c565b9150506020830151610d426020860182610bb5565b506040830151610d556040860182610bc4565b506060830151610d686060860182610bc4565b506080830151610d7b6080860182610bc4565b508091505092915050565b60006020820190508181036000830152610da08184610d10565b905092915050565b6000606082019050610dbd6000830186610977565b610dca6020830185610977565b610dd7604083018461091b565b949350505050565b600081905092915050565b6000610df582610b25565b610dff8185610ddf565b9350610e0f818560208601610b41565b80840191505092915050565b6000610e278284610dea565b915081905092915050565b60008115159050919050565b610e4781610e32565b8114610e5257600080fd5b50565b600081519050610e6481610e3e565b92915050565b600060208284031215610e8057610e7f6108a0565b5b6000610e8e84828501610e55565b91505092915050565b600082825260208201905092915050565b7f5354460000000000000000000000000000000000000000000000000000000000600082015250565b6000610ede600383610e97565b9150610ee982610ea8565b602082019050919050565b60006020820190508181036000830152610f0d81610ed1565b9050919050565b6000604082019050610f296000830185610977565b610f36602083018461091b565b9392505050565b7f5341000000000000000000000000000000000000000000000000000000000000600082015250565b6000610f73600283610e97565b9150610f7e82610f3d565b602082019050919050565b60006020820190508181036000830152610fa281610f66565b905091905056fea26469706673582212209ded2a9365a6263e7cfd3213843ffe48f715634ebc4792e1824d9f6bd080cdcf64736f6c63430008120033",
  "linkReferences": {},
  "deployedLinkReferences": {}
}