{
  "_format": "hh-sol-artifact-1",
  "contractName": "SwapMultiHop",
  "sourceName": "contracts/SwapMultiHop.sol",
  "abi": [
    {
      "inputs": [
        {
          "internalType": "address",
          "name": "token0",
          "type": "address"
        },
        {
          "internalType": "address",
          "name": "token1",
          "type": "address"
        },
        {
          "internalType": "uint256",
          "name": "amountIn",
          "type": "uint256"
        }
      ],
      "name": "swapExactInputMultihop",
      "outputs": [
        {
          "internalType": "uint256",
          "name": "amountOut",
          "type": "uint256"
        }
      ],
      "stateMutability": "nonpayable",
      "type": "function"
    },
    {
      "inputs": [
        {
          "internalType": "address",
          "name": "token0",
          "type": "address"
        },
        {
          "internalType": "address",
          "name": "token1",
          "type": "address"
        },
        {
          "internalType": "uint256",
          "name": "amountOut",
          "type": "uint256"
        },
        {
          "internalType": "uint256",
          "name": "amountInMaximum",
          "type": "uint256"
        }
      ],
      "name": "swapExactOutputMultihop",
      "outputs": [
        {
          "internalType": "uint256",
          "name": "amountIn",
          "type": "uint256"
        }
      ],
      "stateMutability": "nonpayable",
      "type": "function"
    },
    {
      "inputs": [],
      "name": "swapRouter",
      "outputs": [
        {
          "internalType": "contract ISwapRouter",
          "name": "",
          "type": "address"
        }
      ],
      "stateMutability": "view",
      "type": "function"
    }
  ],
  "bytecode": "0x608060405234801561001057600080fd5b50610daf806100206000396000f3fe608060405234801561001057600080fd5b50600436106100415760003560e01c806345956aa014610046578063c31c9c0714610076578063e058f49214610094575b600080fd5b610060600480360381019061005b91906106be565b6100c4565b60405161006d9190610720565b60405180910390f35b61007e6101f2565b60405161008b919061079a565b60405180910390f35b6100ae60048036038101906100a991906107b5565b61020a565b6040516100bb9190610720565b60405180910390f35b60006100d284333085610378565b6100f18473e592427a0aece92de3edee1f18e0157c05861564846104d0565b60006040518060a0016040528086610bb887604051602001610115939291906108a9565b60405160208183030381529060405281526020013373ffffffffffffffffffffffffffffffffffffffff1681526020014281526020018481526020016000815250905073e592427a0aece92de3edee1f18e0157c0586156473ffffffffffffffffffffffffffffffffffffffff1663c04b8d59826040518263ffffffff1660e01b81526004016101a59190610a0a565b6020604051808303816000875af11580156101c4573d6000803e3d6000fd5b505050506040513d601f19601f820116820180604052508101906101e89190610a41565b9150509392505050565b73e592427a0aece92de3edee1f18e0157c0586156481565b600061021885333085610378565b6102378573e592427a0aece92de3edee1f18e0157c05861564846104d0565b60006040518060a0016040528086610bb88960405160200161025b939291906108a9565b60405160208183030381529060405281526020013373ffffffffffffffffffffffffffffffffffffffff16815260200142815260200185815260200184815250905073e592427a0aece92de3edee1f18e0157c0586156473ffffffffffffffffffffffffffffffffffffffff1663f28c0498826040518263ffffffff1660e01b81526004016102ea9190610ae4565b6020604051808303816000875af1158015610309573d6000803e3d6000fd5b505050506040513d601f19601f8201168201806040525081019061032d9190610a41565b91508282101561036f576103578673e592427a0aece92de3edee1f18e0157c0586156460006104d0565b61036e86303385876103699190610b35565b610378565b5b50949350505050565b6000808573ffffffffffffffffffffffffffffffffffffffff166323b872dd60e01b8686866040516024016103af93929190610b78565b604051602081830303815290604052907bffffffffffffffffffffffffffffffffffffffffffffffffffffffff19166020820180517bffffffffffffffffffffffffffffffffffffffffffffffffffffffff83818316178352505050506040516104199190610beb565b6000604051808303816000865af19150503d8060008114610456576040519150601f19603f3d011682016040523d82523d6000602084013e61045b565b606091505b509150915081801561048957506000815114806104885750808060200190518101906104879190610c3a565b5b5b6104c8576040517f08c379a00000000000000000000000000000000000000000000000000000000081526004016104bf90610cc4565b60405180910390fd5b505050505050565b6000808473ffffffffffffffffffffffffffffffffffffffff1663095ea7b360e01b8585604051602401610505929190610ce4565b604051602081830303815290604052907bffffffffffffffffffffffffffffffffffffffffffffffffffffffff19166020820180517bffffffffffffffffffffffffffffffffffffffffffffffffffffffff838183161783525050505060405161056f9190610beb565b6000604051808303816000865af19150503d80600081146105ac576040519150601f19603f3d011682016040523d82523d6000602084013e6105b1565b606091505b50915091508180156105df57506000815114806105de5750808060200190518101906105dd9190610c3a565b5b5b61061e576040517f08c379a000000000000000000000000000000000000000000000000000000000815260040161061590610d59565b60405180910390fd5b5050505050565b600080fd5b600073ffffffffffffffffffffffffffffffffffffffff82169050919050565b60006106558261062a565b9050919050565b6106658161064a565b811461067057600080fd5b50565b6000813590506106828161065c565b92915050565b6000819050919050565b61069b81610688565b81146106a657600080fd5b50565b6000813590506106b881610692565b92915050565b6000806000606084860312156106d7576106d6610625565b5b60006106e586828701610673565b93505060206106f686828701610673565b9250506040610707868287016106a9565b9150509250925092565b61071a81610688565b82525050565b60006020820190506107356000830184610711565b92915050565b6000819050919050565b600061076061075b6107568461062a565b61073b565b61062a565b9050919050565b600061077282610745565b9050919050565b600061078482610767565b9050919050565b61079481610779565b82525050565b60006020820190506107af600083018461078b565b92915050565b600080600080608085870312156107cf576107ce610625565b5b60006107dd87828801610673565b94505060206107ee87828801610673565b93505060406107ff878288016106a9565b9250506060610810878288016106a9565b91505092959194509250565b60008160601b9050919050565b60006108348261081c565b9050919050565b600061084682610829565b9050919050565b61085e6108598261064a565b61083b565b82525050565b600062ffffff82169050919050565b60008160e81b9050919050565b600061088b82610873565b9050919050565b6108a361089e82610864565b610880565b82525050565b60006108b5828661084d565b6014820191506108c58285610892565b6003820191506108d5828461084d565b601482019150819050949350505050565b600081519050919050565b600082825260208201905092915050565b60005b83811015610920578082015181840152602081019050610905565b60008484015250505050565b6000601f19601f8301169050919050565b6000610948826108e6565b61095281856108f1565b9350610962818560208601610902565b61096b8161092c565b840191505092915050565b61097f8161064a565b82525050565b61098e81610688565b82525050565b600060a08301600083015184820360008601526109b1828261093d565b91505060208301516109c66020860182610976565b5060408301516109d96040860182610985565b5060608301516109ec6060860182610985565b5060808301516109ff6080860182610985565b508091505092915050565b60006020820190508181036000830152610a248184610994565b905092915050565b600081519050610a3b81610692565b92915050565b600060208284031215610a5757610a56610625565b5b6000610a6584828501610a2c565b91505092915050565b600060a0830160008301518482036000860152610a8b828261093d565b9150506020830151610aa06020860182610976565b506040830151610ab36040860182610985565b506060830151610ac66060860182610985565b506080830151610ad96080860182610985565b508091505092915050565b60006020820190508181036000830152610afe8184610a6e565b905092915050565b7f4e487b7100000000000000000000000000000000000000000000000000000000600052601160045260246000fd5b6000610b4082610688565b9150610b4b83610688565b9250828203905081811115610b6357610b62610b06565b5b92915050565b610b728161064a565b82525050565b6000606082019050610b8d6000830186610b69565b610b9a6020830185610b69565b610ba76040830184610711565b949350505050565b600081905092915050565b6000610bc5826108e6565b610bcf8185610baf565b9350610bdf818560208601610902565b80840191505092915050565b6000610bf78284610bba565b915081905092915050565b60008115159050919050565b610c1781610c02565b8114610c2257600080fd5b50565b600081519050610c3481610c0e565b92915050565b600060208284031215610c5057610c4f610625565b5b6000610c5e84828501610c25565b91505092915050565b600082825260208201905092915050565b7f5354460000000000000000000000000000000000000000000000000000000000600082015250565b6000610cae600383610c67565b9150610cb982610c78565b602082019050919050565b60006020820190508181036000830152610cdd81610ca1565b9050919050565b6000604082019050610cf96000830185610b69565b610d066020830184610711565b9392505050565b7f5341000000000000000000000000000000000000000000000000000000000000600082015250565b6000610d43600283610c67565b9150610d4e82610d0d565b602082019050919050565b60006020820190508181036000830152610d7281610d36565b905091905056fea26469706673582212209dcb6f856d83ad61b81f8aeed1777d77920a973c15076ac7a676ad62485b2c5c64736f6c63430008120033",
  "linkReferences": {},
  "deployedLinkReferences": {}
}