{
  "_format": "hh-sol-artifact-1",
  "contractName": "UserStorageData",
  "sourceName": "contracts/storeUserData.sol",
  "abi": [
    {
      "inputs": [
        {
          "internalType": "address",
          "name": "poolAddress",
          "type": "address"
        },
        {
          "internalType": "address",
          "name": "tokenAddress0",
          "type": "address"
        },
        {
          "internalType": "address",
          "name": "tokenAddress1",
          "type": "address"
        }
      ],
      "name": "addToBlockchain",
      "outputs": [],
      "stateMutability": "nonpayable",
      "type": "function"
    },
    {
      "inputs": [],
      "name": "getAllTransactions",
      "outputs": [
        {
          "components": [
            {
              "internalType": "address",
              "name": "caller",
              "type": "address"
            },
            {
              "internalType": "address",
              "name": "poolAddress",
              "type": "address"
            },
            {
              "internalType": "address",
              "name": "tokenAddress0",
              "type": "address"
            },
            {
              "internalType": "address",
              "name": "tokenAddress1",
              "type": "address"
            }
          ],
          "internalType": "struct UserStorageData.TransactionStruck[]",
          "name": "",
          "type": "tuple[]"
        }
      ],
      "stateMutability": "view",
      "type": "function"
    }
  ],
  "bytecode": "0x608060405234801561001057600080fd5b5061036a806100206000396000f3fe608060405234801561001057600080fd5b50600436106100365760003560e01c806327506f531461003b578063890cb4e914610059575b600080fd5b61004361006e565b60405161005091906102b3565b60405180910390f35b61006c610067366004610271565b61010e565b005b60606000805480602002602001604051908101604052809291908181526020016000905b828210156101055760008481526020908190206040805160808101825260048602909201805473ffffffffffffffffffffffffffffffffffffffff908116845260018083015482168587015260028301548216938501939093526003909101541660608301529083529092019101610092565b50505050905090565b6040805160808101825233815273ffffffffffffffffffffffffffffffffffffffff948516602082019081529385169181019182529184166060830190815260008054600181018255908052925160049093027f290decd9548b62a8d60345a988386fc84ba6bc95484008f6362f93160ef3e563810180549487167fffffffffffffffffffffffff000000000000000000000000000000000000000095861617905593517f290decd9548b62a8d60345a988386fc84ba6bc95484008f6362f93160ef3e5648501805491871691851691909117905590517f290decd9548b62a8d60345a988386fc84ba6bc95484008f6362f93160ef3e56584018054918616918416919091179055517f290decd9548b62a8d60345a988386fc84ba6bc95484008f6362f93160ef3e5669092018054929093169116179055565b803573ffffffffffffffffffffffffffffffffffffffff8116811461026c57600080fd5b919050565b600080600060608486031215610285578283fd5b61028e84610248565b925061029c60208501610248565b91506102aa60408501610248565b90509250925092565b602080825282518282018190526000919060409081850190868401855b82811015610327578151805173ffffffffffffffffffffffffffffffffffffffff908116865287820151811688870152868201518116878701526060918201511690850152608090930192908501906001016102d0565b509197965050505050505056fea2646970667358221220a9520c868dd2b5aaed5e37431fa54155de9bd03519be39a50ae5b7315d2b2f1564736f6c63430007060033",
  "linkReferences": {},
  "deployedLinkReferences": {}
}